:100BD90020204D4F42494C452050484F4E45004436
:100BE90049414C4C494E472E2E2E00454E544552F4
:100BF9002054484520434F44453A003100320033E0
:100C0900003400350036003700380039002A00303A
:030C1900002300B5
:10080000751003E4F5A0C2B0C2B1120C787BFF7A78
:100810000B79D9120C537FD07E07120C227F011264
:100820000C9D7BFF7A0B79E8120C537FD07E071268
:100830000C227F01120C9D7F80120C9D7BFF7A0B96
:1008400079F4120C53C293C292C291C290D297D241
:1008500096D295D294C2B7C2B6C2B5C2B4C293C240
:1008600092C291C29020943CD293D292D291D290D3
:10087000C2902094077F017E00120976D290C29127
:100880002094077F057E00120976D291C2922094AF
:10089000077F097E00120976D292C2932094BE7F10
:1008A0000D02092420953ED293D292D291D290C2C9
:1008B000902095077F027E00120976D290C2912087
:1008C00095077F067E00120976D291C29220950785
:1008D0007F0A7E00120976D292C2933095030208F5
:1008E0005D7F0E803F209644D293D292D291D290D7
:1008F000C2902096077F037E00120976D290C291A3
:100900002096077F077E00120976D291C292209628
:10091000077F0B7E00120976D292C29330960302B3
:10092000085D7F0F7E0012097602085D3097030292
:10093000085DD293D292D291D290C2902097077F35
:10094000047E00120976D290C2912097077F087E1C
:1009500000120976D291C2922097077F0C7E001276
:100960000976D292C29330970302085D7F107E0011
:0609700012097602085D89
:10097600EE6003020AB7EF14B40F004003020AB791
:1009860090099475F003A4C58325F0C58373020905
:10099600C10209D40209E8020AB70209FB020A0EDB
:1009A600020A22020AB7020A39020A4D020A5F0245
:1009B6000AB7020A76020A8D020AA17F01120C9D6D
:1009C6007BFF7A0C7904120C53C2B7020A6F7F01BF
:1009D600120C9D7BFF7A0C7906120C53C2B7C2B675
:1009E600804C7F01120C9D7BFF7A0C7908120C5308
:1009F600C2B7020A867F01120C9D7BFF7A0C790A28
:100A0600120C53C2B7020AB17F01120C9D7BFF7A0A
:100A16000C790C120C53C2B7D2B6804F7F01120C60
:100A26009D7BFF7A0C790E120C53C2B7D2B6D2B5A3
:100A3600C2B4227F01120C9D7BFF7A0C7910120C36
:100A460053C2B7D2B6803B7F01120C9D7BFF7A0C56
:100A56007912120C53D2B7803E7F01120C9D7BFF98
:100A66007A0C7914120C53D2B7C2B6C2B5D2B422DC
:100A76007F01120C9D7BFF7A0C7916120C53D2B7AC
:100A8600C2B6D2B5D2B4227F01120C9D7BFF7A0C7E
:100A96007918120C53C2B7C2B680127F01120C9D90
:100AA6007BFF7A0C791A120C53D2B7D2B6C2B5C2F2
:020AB600B42268
:100C78007F01120C9D7F38120C9D7F0C120C9D7FFA
:090C880006120C9D7F80020C9DF8
:0A0C9D008FA0C2B0120C1CC2B122DD
:0A0CA7008FA0D2B0120C1CC2B122C3
:100C53008B118A128913AB11AA12A913120AB86055
:100C6300130513E5137002051214F9120AB8FF12E3
:050C73000CA780E22245
:040B5C008E088F0967
:100B6000750A01C3E5086480948050107F2D120C33
:100B7000A7C3E49509F509E49508F508E5094508D2
:100B800070057F30120CA7D3E5099400E508648056
:100B900094804029AE08AF097C007D0A120AD1ED8D
:100BA0002430FF740B250AF8A607AE08AF097C00B5
:100BB0007D0A120AD18E088F09050A80CA150AD348
:100BC000E50A940074809480400E740B250AF8E6C0
:080BD000FF120CA7150A80E7D3
:010BD80022FA
:060C1C00D2B17F027E0050
:100C2200D3EF9400EE6480948040257DFAEDD39456
:100C3200007480948040031D80F37DFAEDD394000C
:100C42007480948040031D80F3EF1F70D31E80D008
:010C5200227F
:03000000020C915E
:0C0C9100787FE4F6D8FD7581130208009E
:100AB800BB010689828A83E0225002E722BBFE023C
:090AC800E32289828A83E493226F
:100AD100C2D5EC30E709B2D5E4C39DFDE49CFCEE40
:100AE10030E715B2D5E4C39FFFE49EFE120B07C3A6
:100AF100E49DFDE49CFC8003120B0730D507C3E4A1
:060B01009FFFE49EFE22AE
:100B0700BC000BBE0029EF8DF084FFADF022E4CCD2
:100B1700F875F008EF2FFFEE33FEEC33FCEE9DEC9B
:100B2700984005FCEE9DFE0FD5F0E9E4CEFD22EDE1
:100B3700F8F5F0EE8420D21CFEADF075F008EF2F2B
:100B4700FFED33FD4007985006D5F0F222C398FD1C
:050B57000FD5F0EA22B9
:00000001FF
