:100A1F005041535357442050524F5445435445442B
:100A2F000020202047415241474520444F4F52005C
:100A3F00202020204F50454E494E47005448452016
:100A4F0047415241474520444F4F52002020444FC9
:100A5F004F52204F50454E45442100444F4F522096
:100A6F0049532000414C5245414459204F50454E67
:100A7F004544210020202020434C4F53494E47002E
:100A8F002020444F4F5220434C4F534544210044A4
:100A9F004F4F5220495300414C5245414459204336
:070AAF004C4F5345442100A8
:070C45000118030208000082
:100B4200120C36120BDE7BFF7A0A791F120BB97F69
:100B5200C0120C167BFF7A0A7930120BB97FD07E55
:100B620007120B82E5B0540F640B7003120800E504
:0C0B7200B0540F640C70ED12091080E804
:10080000E5B0540F640B60F8E5B0540F750A00F5BD
:100810000BE5B0540F640160F8E5B0540F750C009F
:10082000F50DE5B0540F640260F8E5B0540F750E95
:1008300000F50FE5B0540F640360F8E5B0540F7590
:100840001000F511E5B0540F640460F8E5B0540FE2
:10085000751400F515E50B6401450A705EE50D643D
:1008600002450C7056E50F6403450E704EE51164A9
:100870000445107046E515640B4514703EE50945C6
:100880000870387F01120C167F80120C167BFF7ADD
:100890000A793F120BB97FC0120C16120BB3D2901B
:1008A000C291120B7E120C107BFF7A0A795B120B3D
:1008B000B9120B7E75080075090122E50B6401452C
:1008C0000A704CE50D6402450C7044E50F64034565
:1008D0000E703CE511640445107034E515640B4559
:1008E00014702CE5096401450870247F01120C1670
:1008F0007F80120C167BFF7A0A796A120BB97FC0CF
:10090000120C167BFF7A0A7973120BB9120B7E2236
:10091000E5B0540F640C60F8E5B0540F750A00F5AB
:100920000BE5B0540F640160F8E5B0540F750C008E
:10093000F50DE5B0540F640260F8E5B0540F750E84
:1009400000F50FE5B0540F640360F8E5B0540F757F
:100950001000F511E5B0540F640460F8E5B0540FD1
:10096000751200F513E50B6401450A705FE50D642F
:1009700002450C7057E50F6403450E704FE5116496
:100980000445107047E513640C4512703FE5096497
:1009900001450870377F01120C167F80120C167B00
:1009A000FF7A0A7983120BB97FC0120C16120BB3AF
:1009B000C290D291120B7E120C107BFF7A0A798FB3
:1009C000120BB9120B7EE4F508F50922E50B640160
:1009D000450A704AE50D6402450C7042E50F640358
:1009E000450E703AE511640445107032E513640C4D
:1009F0004512702AE509450870247F01120C167F04
:100A000080120C167BFF7A0A799E120BB97FC012F6
:0F0A10000C167BFF7A0A79A6120BB9120B7E2205
:0F0C3600E4F5A0C296C297C291C29075B0FF229A
:100BDE007F01120C167F38120C167F0C120C167F2A
:090BEE0006120C167F80020C16A1
:060C1000C291C2907F01B9
:100C16008FA0C296D2977F027E00120B82C29722C5
:100C26008FA0D296D2977F027E00120B82C29722A5
:060BB3007BFF7A0A794B7A
:100BB9008B198A1A891BAB19AA1AA91B120BF76080
:100BC90013051BE51B7002051A14F9120BF7FF1226
:050BD9000C2680E22261
:040B7E007FB87E0BB3
:100B8200D3EF9400EE6480948040257DFAEDD394F7
:100B9200007480948040031D80F37DFAEDD39400AD
:100BA2007480948040031D80F3EF1F70D31E80D0A9
:010BB2002220
:03000000020AB63B
:0C0AB600787FE4F6D8FD75811B020AFD74
:100BF700BB010689828A83E0225002E722BBFE02FC
:090C0700E32289828A83E493222E
:100AC200020B42E493A3F8E493A34003F68001F2FD
:100AD20008DFF48029E493A3F85407240CC8C33335
:100AE200C4540F4420C8834004F456800146F6DF04
:100AF200E4800B0102040810204080900C45E47E43
:100B0200019360BCA3FF543F30E509541FFEE493F8
:100B1200A360010ECF54C025E060A840B8E493A3BF
:100B2200FAE493A3F8E493A3C8C582C8CAC583CAEA
:100B3200F0A3C8C582C8CAC583CADFE9DEE780BEA2
:010C4C0000A7
:00000001FF
